{"abi":[{"type":"constructor","inputs":[],"stateMutability":"nonpayable"},{"type":"function","name":"ADMIN_ROLE","inputs":[],"outputs":[{"name":"","type":"bytes32","internalType":"bytes32"}],"stateMutability":"view"},{"type":"function","name":"CLAIM_EXPIRY","inputs":[],"outputs":[{"name":"","type":"uint256","internalType":"uint256"}],"stateMutability":"view"},{"type":"function","name":"DEFAULT_ADMIN_ROLE","inputs":[],"outputs":[{"name":"","type":"bytes32","internalType":"bytes32"}],"stateMutability":"view"},{"type":"function","name":"GUARDIAN_ROLE","inputs":[],"outputs":[{"name":"","type":"bytes32","internalType":"bytes32"}],"stateMutability":"view"},{"type":"function","name":"MAX_ENTRY_FEE","inputs":[],"outputs":[{"name":"","type":"uint256","internalType":"uint256"}],"stateMutability":"view"},{"type":"function","name":"OPERATOR_ROLE","inputs":[],"outputs":[{"name":"","type":"bytes32","internalType":"bytes32"}],"stateMutability":"view"},{"type":"function","name":"PAUSER_ROLE","inputs":[],"outputs":[{"name":"","type":"bytes32","internalType":"bytes32"}],"stateMutability":"view"},{"type":"function","name":"REFUND_EXPIRY","inputs":[],"outputs":[{"name":"","type":"uint256","internalType":"uint256"}],"stateMutability":"view"},{"type":"function","name":"SETTLER_ROLE","inputs":[],"outputs":[{"name":"","type":"bytes32","internalType":"bytes32"}],"stateMutability":"view"},{"type":"function","name":"UPGRADE_INTERFACE_VERSION","inputs":[],"outputs":[{"name":"","type":"string","internalType":"string"}],"stateMutability":"view"},{"type":"function","name":"VERSION","inputs":[],"outputs":[{"name":"","type":"string","internalType":"string"}],"stateMutability":"view"},{"type":"function","name":"accumulatedFees","inputs":[],"outputs":[{"name":"","type":"uint256","internalType":"uint256"}],"stateMutability":"view"},{"type":"function","name":"activeGameCount","inputs":[],"outputs":[{"name":"","type":"uint256","internalType":"uint256"}],"stateMutability":"view"},{"type":"function","name":"buyTicket","inputs":[{"name":"gameId","type":"uint256","internalType":"uint256"}],"outputs":[],"stateMutability":"nonpayable"},{"type":"function","name":"buyTicket","inputs":[{"name":"gameId","type":"bytes32","internalType":"bytes32"},{"name":"amount","type":"uint256","internalType":"uint256"}],"outputs":[],"stateMutability":"nonpayable"},{"type":"function","name":"buyTicketWithPermit","inputs":[{"name":"gameId","type":"uint256","internalType":"uint256"},{"name":"deadline","type":"uint256","internalType":"uint256"},{"name":"v","type":"uint8","internalType":"uint8"},{"name":"r","type":"bytes32","internalType":"bytes32"},{"name":"s","type":"bytes32","internalType":"bytes32"}],"outputs":[],"stateMutability":"nonpayable"},{"type":"function","name":"buyTicketWithPermit","inputs":[{"name":"gameId","type":"bytes32","internalType":"bytes32"},{"name":"amount","type":"uint256","internalType":"uint256"},{"name":"deadline","type":"uint256","internalType":"uint256"},{"name":"v","type":"uint8","internalType":"uint8"},{"name":"r","type":"bytes32","internalType":"bytes32"},{"name":"s","type":"bytes32","internalType":"bytes32"}],"outputs":[],"stateMutability":"nonpayable"},{"type":"function","name":"cancelGame","inputs":[{"name":"gameId","type":"bytes32","internalType":"bytes32"}],"outputs":[],"stateMutability":"nonpayable"},{"type":"function","name":"cancelGame","inputs":[{"name":"gameId","type":"uint256","internalType":"uint256"}],"outputs":[],"stateMutability":"nonpayable"},{"type":"function","name":"claimPrize","inputs":[{"name":"gameId","type":"bytes32","internalType":"bytes32"},{"name":"amount","type":"uint256","internalType":"uint256"},{"name":"proof","type":"bytes32[]","internalType":"bytes32[]"}],"outputs":[],"stateMutability":"nonpayable"},{"type":"function","name":"claimPrize","inputs":[{"name":"gameId","type":"uint256","internalType":"uint256"},{"name":"amount","type":"uint256","internalType":"uint256"},{"name":"proof","type":"bytes32[]","internalType":"bytes32[]"}],"outputs":[],"stateMutability":"nonpayable"},{"type":"function","name":"claimRefund","inputs":[{"name":"gameId","type":"uint256","internalType":"uint256"}],"outputs":[],"stateMutability":"nonpayable"},{"type":"function","name":"claimRefund","inputs":[{"name":"gameId","type":"bytes32","internalType":"bytes32"}],"outputs":[],"stateMutability":"nonpayable"},{"type":"function","name":"closeSales","inputs":[{"name":"gameId","type":"bytes32","internalType":"bytes32"}],"outputs":[],"stateMutability":"nonpayable"},{"type":"function","name":"correctResultsRoot","inputs":[{"name":"gameId","type":"bytes32","internalType":"bytes32"},{"name":"newRoot","type":"bytes32","internalType":"bytes32"}],"outputs":[],"stateMutability":"nonpayable"},{"type":"function","name":"createGame","inputs":[{"name":"gameId","type":"uint256","internalType":"uint256"},{"name":"minimumTicketPrice","type":"uint256","internalType":"uint256"}],"outputs":[],"stateMutability":"nonpayable"},{"type":"function","name":"createGame","inputs":[{"name":"gameId","type":"bytes32","internalType":"bytes32"},{"name":"minimumTicketPrice","type":"uint256","internalType":"uint256"}],"outputs":[],"stateMutability":"nonpayable"},{"type":"function","name":"endGame","inputs":[{"name":"gameId","type":"uint256","internalType":"uint256"}],"outputs":[],"stateMutability":"nonpayable"},{"type":"function","name":"getGame","inputs":[{"name":"gameId","type":"bytes32","internalType":"bytes32"}],"outputs":[{"name":"","type":"tuple","internalType":"struct WaffleGame.Game","components":[{"name":"minimumTicketPrice","type":"uint256","internalType":"uint256"},{"name":"ticketCount","type":"uint256","internalType":"uint256"},{"name":"ticketRevenue","type":"uint256","internalType":"uint256"},{"name":"sponsoredAmount","type":"uint256","internalType":"uint256"},{"name":"resultsRoot","type":"bytes32","internalType":"bytes32"},{"name":"settledAt","type":"uint256","internalType":"uint256"},{"name":"claimCount","type":"uint256","internalType":"uint256"},{"name":"salesClosed","type":"bool","internalType":"bool"},{"name":"cancelled","type":"bool","internalType":"bool"}]}],"stateMutability":"view"},{"type":"function","name":"getGame","inputs":[{"name":"gameId","type":"uint256","internalType":"uint256"}],"outputs":[{"name":"","type":"tuple","internalType":"struct WaffleGame.Game","components":[{"name":"minimumTicketPrice","type":"uint256","internalType":"uint256"},{"name":"ticketCount","type":"uint256","internalType":"uint256"},{"name":"ticketRevenue","type":"uint256","internalType":"uint256"},{"name":"sponsoredAmount","type":"uint256","internalType":"uint256"},{"name":"resultsRoot","type":"bytes32","internalType":"bytes32"},{"name":"settledAt","type":"uint256","internalType":"uint256"},{"name":"claimCount","type":"uint256","internalType":"uint256"},{"name":"salesClosed","type":"bool","internalType":"bool"},{"name":"cancelled","type":"bool","internalType":"bool"}]}],"stateMutability":"view"},{"type":"function","name":"getRoleAdmin","inputs":[{"name":"role","type":"bytes32","internalType":"bytes32"}],"outputs":[{"name":"","type":"bytes32","internalType":"bytes32"}],"stateMutability":"view"},{"type":"function","name":"getTotalPrizePool","inputs":[{"name":"gameId","type":"bytes32","internalType":"bytes32"}],"outputs":[{"name":"","type":"uint256","internalType":"uint256"}],"stateMutability":"view"},{"type":"function","name":"grantRole","inputs":[{"name":"role","type":"bytes32","internalType":"bytes32"},{"name":"account","type":"address","internalType":"address"}],"outputs":[],"stateMutability":"nonpayable"},{"type":"function","name":"hasClaimed","inputs":[{"name":"gameId","type":"uint256","internalType":"uint256"},{"name":"player","type":"address","internalType":"address"}],"outputs":[{"name":"","type":"bool","internalType":"bool"}],"stateMutability":"view"},{"type":"function","name":"hasClaimed","inputs":[{"name":"gameId","type":"bytes32","internalType":"bytes32"},{"name":"player","type":"address","internalType":"address"}],"outputs":[{"name":"","type":"bool","internalType":"bool"}],"stateMutability":"view"},{"type":"function","name":"hasRole","inputs":[{"name":"role","type":"bytes32","internalType":"bytes32"},{"name":"account","type":"address","internalType":"address"}],"outputs":[{"name":"","type":"bool","internalType":"bool"}],"stateMutability":"view"},{"type":"function","name":"hasTicket","inputs":[{"name":"gameId","type":"bytes32","internalType":"bytes32"},{"name":"player","type":"address","internalType":"address"}],"outputs":[{"name":"","type":"bool","internalType":"bool"}],"stateMutability":"view"},{"type":"function","name":"hasTicket","inputs":[{"name":"gameId","type":"uint256","internalType":"uint256"},{"name":"player","type":"address","internalType":"address"}],"outputs":[{"name":"","type":"bool","internalType":"bool"}],"stateMutability":"view"},{"type":"function","name":"initialize","inputs":[{"name":"token_","type":"address","internalType":"address"},{"name":"superAdmin_","type":"address","internalType":"address"},{"name":"operator_","type":"address","internalType":"address"},{"name":"settler_","type":"address","internalType":"address"},{"name":"guardian_","type":"address","internalType":"address"},{"name":"platformFeePermyriad_","type":"uint16","internalType":"uint16"}],"outputs":[],"stateMutability":"nonpayable"},{"type":"function","name":"pause","inputs":[],"outputs":[],"stateMutability":"nonpayable"},{"type":"function","name":"paused","inputs":[],"outputs":[{"name":"","type":"bool","internalType":"bool"}],"stateMutability":"view"},{"type":"function","name":"paymentToken","inputs":[],"outputs":[{"name":"","type":"address","internalType":"address"}],"stateMutability":"view"},{"type":"function","name":"platformFeeBps","inputs":[],"outputs":[{"name":"","type":"uint16","internalType":"uint16"}],"stateMutability":"view"},{"type":"function","name":"platformFeePermyriad","inputs":[],"outputs":[{"name":"","type":"uint16","internalType":"uint16"}],"stateMutability":"view"},{"type":"function","name":"proxiableUUID","inputs":[],"outputs":[{"name":"","type":"bytes32","internalType":"bytes32"}],"stateMutability":"view"},{"type":"function","name":"renounceRole","inputs":[{"name":"role","type":"bytes32","internalType":"bytes32"},{"name":"callerConfirmation","type":"address","internalType":"address"}],"outputs":[],"stateMutability":"nonpayable"},{"type":"function","name":"revokeRole","inputs":[{"name":"role","type":"bytes32","internalType":"bytes32"},{"name":"account","type":"address","internalType":"address"}],"outputs":[],"stateMutability":"nonpayable"},{"type":"function","name":"setPaymentToken","inputs":[{"name":"newToken","type":"address","internalType":"address"}],"outputs":[],"stateMutability":"nonpayable"},{"type":"function","name":"setPlatformFee","inputs":[{"name":"newFeePermyriad","type":"uint16","internalType":"uint16"}],"outputs":[],"stateMutability":"nonpayable"},{"type":"function","name":"setToken","inputs":[{"name":"newToken","type":"address","internalType":"address"}],"outputs":[],"stateMutability":"nonpayable"},{"type":"function","name":"sponsorPrizePool","inputs":[{"name":"gameId","type":"bytes32","internalType":"bytes32"},{"name":"amount","type":"uint256","internalType":"uint256"}],"outputs":[],"stateMutability":"nonpayable"},{"type":"function","name":"submitResults","inputs":[{"name":"gameId","type":"uint256","internalType":"uint256"},{"name":"resultsRoot","type":"bytes32","internalType":"bytes32"}],"outputs":[],"stateMutability":"nonpayable"},{"type":"function","name":"submitResults","inputs":[{"name":"gameId","type":"bytes32","internalType":"bytes32"},{"name":"resultsRoot","type":"bytes32","internalType":"bytes32"}],"outputs":[],"stateMutability":"nonpayable"},{"type":"function","name":"supportsInterface","inputs":[{"name":"interfaceId","type":"bytes4","internalType":"bytes4"}],"outputs":[{"name":"","type":"bool","internalType":"bool"}],"stateMutability":"view"},{"type":"function","name":"sweepExpiredGame","inputs":[{"name":"gameId","type":"uint256","internalType":"uint256"},{"name":"to","type":"address","internalType":"address"},{"name":"amount","type":"uint256","internalType":"uint256"}],"outputs":[],"stateMutability":"nonpayable"},{"type":"function","name":"sweepUnclaimedFunds","inputs":[{"name":"gameId","type":"bytes32","internalType":"bytes32"},{"name":"to","type":"address","internalType":"address"},{"name":"amount","type":"uint256","internalType":"uint256"}],"outputs":[],"stateMutability":"nonpayable"},{"type":"function","name":"token","inputs":[],"outputs":[{"name":"","type":"address","internalType":"address"}],"stateMutability":"view"},{"type":"function","name":"unpause","inputs":[],"outputs":[],"stateMutability":"nonpayable"},{"type":"function","name":"upgradeToAndCall","inputs":[{"name":"newImplementation","type":"address","internalType":"address"},{"name":"data","type":"bytes","internalType":"bytes"}],"outputs":[],"stateMutability":"payable"},{"type":"function","name":"withdrawFees","inputs":[{"name":"to","type":"address","internalType":"address"},{"name":"amount","type":"uint256","internalType":"uint256"}],"outputs":[],"stateMutability":"nonpayable"},{"type":"event","name":"FeesWithdrawn","inputs":[{"name":"to","type":"address","indexed":true,"internalType":"address"},{"name":"amount","type":"uint256","indexed":false,"internalType":"uint256"}],"anonymous":false},{"type":"event","name":"GameCancelled","inputs":[{"name":"gameId","type":"bytes32","indexed":true,"internalType":"bytes32"}],"anonymous":false},{"type":"event","name":"GameCreated","inputs":[{"name":"gameId","type":"bytes32","indexed":true,"internalType":"bytes32"},{"name":"minimumTicketPrice","type":"uint256","indexed":false,"internalType":"uint256"}],"anonymous":false},{"type":"event","name":"Initialized","inputs":[{"name":"version","type":"uint64","indexed":false,"internalType":"uint64"}],"anonymous":false},{"type":"event","name":"Paused","inputs":[{"name":"account","type":"address","indexed":false,"internalType":"address"}],"anonymous":false},{"type":"event","name":"PaymentTokenUpdated","inputs":[{"name":"oldToken","type":"address","indexed":false,"internalType":"address"},{"name":"newToken","type":"address","indexed":false,"internalType":"address"}],"anonymous":false},{"type":"event","name":"PlatformFeeUpdated","inputs":[{"name":"oldFeePermyriad","type":"uint16","indexed":false,"internalType":"uint16"},{"name":"newFeePermyriad","type":"uint16","indexed":false,"internalType":"uint16"}],"anonymous":false},{"type":"event","name":"PrizeClaimed","inputs":[{"name":"gameId","type":"bytes32","indexed":true,"internalType":"bytes32"},{"name":"player","type":"address","indexed":true,"internalType":"address"},{"name":"amount","type":"uint256","indexed":false,"internalType":"uint256"}],"anonymous":false},{"type":"event","name":"PrizePoolSponsored","inputs":[{"name":"gameId","type":"bytes32","indexed":true,"internalType":"bytes32"},{"name":"sponsor","type":"address","indexed":true,"internalType":"address"},{"name":"amount","type":"uint256","indexed":false,"internalType":"uint256"},{"name":"fee","type":"uint256","indexed":false,"internalType":"uint256"}],"anonymous":false},{"type":"event","name":"RefundClaimed","inputs":[{"name":"gameId","type":"bytes32","indexed":true,"internalType":"bytes32"},{"name":"player","type":"address","indexed":true,"internalType":"address"},{"name":"amount","type":"uint256","indexed":false,"internalType":"uint256"}],"anonymous":false},{"type":"event","name":"ResultsCorrected","inputs":[{"name":"gameId","type":"bytes32","indexed":true,"internalType":"bytes32"},{"name":"newRoot","type":"bytes32","indexed":false,"internalType":"bytes32"}],"anonymous":false},{"type":"event","name":"ResultsSubmitted","inputs":[{"name":"gameId","type":"bytes32","indexed":true,"internalType":"bytes32"},{"name":"resultsRoot","type":"bytes32","indexed":false,"internalType":"bytes32"}],"anonymous":false},{"type":"event","name":"RoleAdminChanged","inputs":[{"name":"role","type":"bytes32","indexed":true,"internalType":"bytes32"},{"name":"previousAdminRole","type":"bytes32","indexed":true,"internalType":"bytes32"},{"name":"newAdminRole","type":"bytes32","indexed":true,"internalType":"bytes32"}],"anonymous":false},{"type":"event","name":"RoleGranted","inputs":[{"name":"role","type":"bytes32","indexed":true,"internalType":"bytes32"},{"name":"account","type":"address","indexed":true,"internalType":"address"},{"name":"sender","type":"address","indexed":true,"internalType":"address"}],"anonymous":false},{"type":"event","name":"RoleRevoked","inputs":[{"name":"role","type":"bytes32","indexed":true,"internalType":"bytes32"},{"name":"account","type":"address","indexed":true,"internalType":"address"},{"name":"sender","type":"address","indexed":true,"internalType":"address"}],"anonymous":false},{"type":"event","name":"SalesClosed","inputs":[{"name":"gameId","type":"bytes32","indexed":true,"internalType":"bytes32"}],"anonymous":false},{"type":"event","name":"TicketPurchased","inputs":[{"name":"gameId","type":"bytes32","indexed":true,"internalType":"bytes32"},{"name":"player","type":"address","indexed":true,"internalType":"address"},{"name":"amount","type":"uint256","indexed":false,"internalType":"uint256"}],"anonymous":false},{"type":"event","name":"UnclaimedFundsSwept","inputs":[{"name":"gameId","type":"bytes32","indexed":true,"internalType":"bytes32"},{"name":"to","type":"address","indexed":true,"internalType":"address"},{"name":"amount","type":"uint256","indexed":false,"internalType":"uint256"}],"anonymous":false},{"type":"event","name":"Unpaused","inputs":[{"name":"account","type":"address","indexed":false,"internalType":"address"}],"anonymous":false},{"type":"event","name":"Upgraded","inputs":[{"name":"implementation","type":"address","indexed":true,"internalType":"address"}],"anonymous":false},{"type":"error","name":"AccessControlBadConfirmation","inputs":[]},{"type":"error","name":"AccessControlUnauthorizedAccount","inputs":[{"name":"account","type":"address","internalType":"address"},{"name":"neededRole","type":"bytes32","internalType":"bytes32"}]},{"type":"error","name":"ActiveGamesExist","inputs":[]},{"type":"error","name":"AddressEmptyCode","inputs":[{"name":"target","type":"address","internalType":"address"}]},{"type":"error","name":"AlreadyCancelled","inputs":[]},{"type":"error","name":"AlreadyClaimed","inputs":[]},{"type":"error","name":"AlreadyClosed","inputs":[]},{"type":"error","name":"AlreadyFinalized","inputs":[]},{"type":"error","name":"AlreadyHasTicket","inputs":[]},{"type":"error","name":"AlreadyRefunded","inputs":[]},{"type":"error","name":"ClaimExpired","inputs":[]},{"type":"error","name":"ClaimsAlreadyStarted","inputs":[]},{"type":"error","name":"ERC1967InvalidImplementation","inputs":[{"name":"implementation","type":"address","internalType":"address"}]},{"type":"error","name":"ERC1967NonPayable","inputs":[]},{"type":"error","name":"EnforcedPause","inputs":[]},{"type":"error","name":"EntryFeeTooHigh","inputs":[]},{"type":"error","name":"ExpectedPause","inputs":[]},{"type":"error","name":"FailedCall","inputs":[]},{"type":"error","name":"FeeOnTransferNotSupported","inputs":[]},{"type":"error","name":"GameExists","inputs":[]},{"type":"error","name":"GameIsCancelled","inputs":[]},{"type":"error","name":"GameIsClosed","inputs":[]},{"type":"error","name":"GameNotFound","inputs":[]},{"type":"error","name":"InsufficientFees","inputs":[]},{"type":"error","name":"InvalidEntryFee","inputs":[]},{"type":"error","name":"InvalidFee","inputs":[]},{"type":"error","name":"InvalidGameId","inputs":[]},{"type":"error","name":"InvalidInitialization","inputs":[]},{"type":"error","name":"InvalidMerkleRoot","inputs":[]},{"type":"error","name":"InvalidProof","inputs":[]},{"type":"error","name":"InvalidTicketAmount","inputs":[]},{"type":"error","name":"NoTicket","inputs":[]},{"type":"error","name":"NotCancelled","inputs":[]},{"type":"error","name":"NotFinalized","inputs":[]},{"type":"error","name":"NotInitializing","inputs":[]},{"type":"error","name":"ReentrancyGuardReentrantCall","inputs":[]},{"type":"error","name":"RefundExpired","inputs":[]},{"type":"error","name":"SafeERC20FailedOperation","inputs":[{"name":"token","type":"address","internalType":"address"}]},{"type":"error","name":"UUPSUnauthorizedCallContext","inputs":[]},{"type":"error","name":"UUPSUnsupportedProxiableUUID","inputs":[{"name":"slot","type":"bytes32","internalType":"bytes32"}]},{"type":"error","name":"ZeroAddress","inputs":[]}],"bytecode":{"object":"0x60a06040523060805234801562000014575f80fd5b506200001f62000025565b620000d9565b7ff0c57e16840df040f15088dc2f81fe391c3923bec73e23a9662efc9c229c6a00805468010000000000000000900460ff1615620000765760405163f92ee8a960e01b815260040160405180910390fd5b80546001600160401b0390811614620000d65780546001600160401b0319166001600160401b0390811782556040519081527fc7f505b2f371ae2175ee4913f4499e1f2633a7b5936321eed1cdaeb6115181d29060200160405180910390a15b50565b608051613794620001005f395f81816125c3015281816125ec015261271c01526137945ff3fe608060405260043610610387575f3560e01c806373931bbf116101d3578063b42cf061116100fd578063e295fa7f1161009d578063f50ab0de1161006d578063f50ab0de14610a64578063f5b541a6146107c6578063fc0c546a1461050e578063ffa1ad7414610a83575f80fd5b8063e295fa7f14610a10578063e2a0351c14610a2f578063e63ab1e9146104b0578063eab1e35914610a4e575f80fd5b8063cb0e43b8116100d8578063cb0e43b814610994578063d0399bb8146109b3578063d547741f146109d2578063e281d109146109f1575f80fd5b8063b42cf06114610942578063c0b9c53c14610961578063c87f6ff714610980575f80fd5b806392a42d1d11610173578063a6de74e811610143578063a6de74e8146108a8578063ad3b1b47146108c7578063ad3cb1cc146108e6578063ad9791a514610923575f80fd5b806392a42d1d146108385780639d987b3a14610857578063a217fddf14610876578063a2f77bcc14610889575f80fd5b806383ae35dd116101ae57806383ae35dd1461046a5780638456cb59146107e6578063873f6f9e146107fa57806391d1485414610819575f80fd5b806373931bbf146107175780637445e85c146107a657806375b238fc146107c6575f80fd5b80633f7121b0116102b45780635b7baf641161025457806367dd74ca1161022457806367dd74ca146106ba57806369958ab9146106d95780636a326ab1146103ff57806371de2ffc146106f8575f80fd5b80635b7baf641461063a5780635c975abb146106595780635cbc742c1461067c57806360104cef1461069b575f80fd5b806349d578741161028f57806349d57874146105e95780634f1ef286146105ff57806352d1902d14610612578063587f5ed714610626575f80fd5b80633f7121b01461058c57806340ec5c5d146105ab5780634843d2b1146105ca575f80fd5b8063248a9ca31161032a5780633013ce29116102fa5780633013ce291461050e57806336568abe1461053a5780633e8297d1146105595780633f4ba83a14610578575f80fd5b8063248a9ca31461049157806324ea54f4146104b057806328ff8569146104d05780632f2ff15d146104ef575f80fd5b8063144fa6d711610365578063144fa6d7146103ff5780631761ab221461041e578063221719ad1461043d57806322dcd13e1461046a575f80fd5b806301ffc9a71461038b5780630a42a3cb146103bf578063125c42f6146103e0575b5f80fd5b348015610396575f80fd5b506103aa6103a53660046131b0565b610ab3565b60405190151581526020015b60405180910390f35b3480156103ca575f80fd5b506103de6103d93660046131d7565b610ae9565b005b3480156103eb575f80fd5b506103de6103fa36600461321a565b610b0d565b34801561040a575f80fd5b506103de61041936600461328a565b610d62565b348015610429575f80fd5b506103de6104383660046132a3565b610e24565b348015610448575f80fd5b5061045c6104573660046131d7565b6110a3565b6040519081526020016103b6565b348015610475575f80fd5b5061047e61110b565b60405161ffff90911681526020016103b6565b34801561049c575f80fd5b5061045c6104ab3660046131d7565b611125565b3480156104bb575f80fd5b5061045c5f8051602061371f83398151915281565b3480156104db575f80fd5b506103de6104ea36600461330b565b611145565b3480156104fa575f80fd5b506103de61050936600461335a565b61116f565b348015610519575f80fd5b5061052261118b565b6040516001600160a01b0390911681526020016103b6565b348015610545575f80fd5b506103de61055436600461335a565b6111a3565b348015610564575f80fd5b506103de6105733660046132a3565b6111db565b348015610583575f80fd5b506103de611204565b348015610597575f80fd5b506103de6105a63660046131d7565b611226565b3480156105b6575f80fd5b506103aa6105c536600461335a565b611246565b3480156105d5575f80fd5b506103aa6105e436600461335a565b61127b565b3480156105f4575f80fd5b5061045c6276a70081565b6103de61060d366004613398565b6112c2565b34801561061d575f80fd5b5061045c6112dd565b348015610631575f80fd5b5061045c6112f8565b348015610645575f80fd5b506103de6106543660046131d7565b61130a565b348015610664575f80fd5b505f805160206136ff8339815191525460ff166103aa565b348015610687575f80fd5b506103de610696366004613454565b611333565b3480156106a6575f80fd5b506103de6106b53660046132a3565b6113ca565b3480156106c5575f80fd5b506103de6106d43660046131d7565b6113f3565b3480156106e4575f80fd5b506103de6106f33660046131d7565b611444565b348015610703575f80fd5b506103de6107123660046131d7565b61146c565b348015610722575f80fd5b506107366107313660046131d7565b611485565b6040516103b691905f61012082019050825182526020830151602083015260408301516040830152606083015160608301526080830151608083015260a083015160a083015260c083015160c083015260e0830151151560e0830152610100808401511515818401525092915050565b3480156107b1575f80fd5b5061045c5f8051602061373f83398151915281565b3480156107d1575f80fd5b5061045c5f805160206136bf83398151915281565b3480156107f1575f80fd5b506103de611519565b348015610805575f80fd5b506103aa61081436600461335a565b611538565b348015610824575f80fd5b506103aa61083336600461335a565b61154e565b348015610843575f80fd5b506103aa61085236600461335a565b611584565b348015610862575f80fd5b506103de61087136600461347d565b6115b9565b348015610881575f80fd5b5061045c5f81565b348015610894575f80fd5b506107366108a33660046131d7565b611614565b3480156108b3575f80fd5b506103de6108c236600461330b565b6116b4565b3480156108d2575f80fd5b506103de6108e13660046134c0565b6116d8565b3480156108f1575f80fd5b50610916604051806040016040528060058152602001640352e302e360dc1b81525081565b6040516103b6919061350a565b34801561092e575f80fd5b506103de61093d3660046132a3565b6117bb565b34801561094d575f80fd5b506103de61095c36600461353c565b6117dc565b34801561096c575f80fd5b506103de61097b3660046132a3565b611970565b34801561098b575f80fd5b5061045c611991565b34801561099f575f80fd5b506103de6109ae36600461353c565b6119a3565b3480156109be575f80fd5b506103de6109cd3660046131d7565b611b3a565b3480156109dd575f80fd5b506103de6109ec36600461335a565b611b62565b3480156109fc575f80fd5b506103de610a0b3660046132a3565b611b7e565b348015610a1b575f80fd5b506103de610a2a3660046132a3565b611ca8565b348015610a3a575f80fd5b506103de610a4936600461356e565b611ccb565b348015610a59575f80fd5b5061045c62ed4e0081565b348015610a6f575f80fd5b5061045c6b033b2e3c9fd0803ce800000081565b348015610a8e575f80fd5b50610916604051806040016040528060058152602001640332e302e360dc1b81525081565b5f6001600160e01b03198216637965db0b60e01b1480610ae357506301ffc9a760e01b6001600160e01b03198316145b92915050565b5f805160206136bf833981519152610b0081611cf9565b610b0982611d03565b5050565b7ff0c57e16840df040f15088dc2f81fe391c3923bec73e23a9662efc9c229c6a008054600160401b810460ff16159067ffffffffffffffff165f81158015610b525750825b90505f8267ffffffffffffffff166001148015610b6e5750303b155b905081158015610b7c575080155b15610b9a5760405163f92ee8a960e01b815260040160405180910390fd5b845467ffffffffffffffff191660011785558315610bc457845460ff60401b1916600160401b1785555b6001600160a01b038b16610beb5760405163d92e233d60e01b815260040160405180910390fd5b6001600160a01b038a16610c125760405163d92e233d60e01b815260040160405180910390fd5b6127108661ffff161115610c39576040516358d620b360e01b815260040160405180910390fd5b610c41611deb565b610c49611deb565b610c51611df5565b610c59611e05565b5f610c62611e15565b805461ffff8916600160a01b026001600160b01b03199091166001600160a01b038f16171781559050610c955f8c611e39565b506001600160a01b038a1615610cbe57610cbc5f805160206136bf8339815191528b611e39565b505b6001600160a01b03891615610ce657610ce45f8051602061373f8339815191528a611e39565b505b6001600160a01b03881615610d0e57610d0c5f8051602061371f83398151915289611e39565b505b508315610d5557845460ff60401b19168555604051600181527fc7f505b2f371ae2175ee4913f4499e1f2633a7b5936321eed1cdaeb6115181d29060200160405180910390a15b5050505050505050505050565b5f610d6c81611cf9565b5f610d75611e15565b600181015490915015610d9b576040516331a89ae960e01b815260040160405180910390fd5b6001600160a01b038316610dc25760405163d92e233d60e01b815260040160405180910390fd5b80546001600160a01b038481166001600160a01b031983168117845560408051929093168083526020830191909152917f5efdfedf5aef119c431263f0656093045dffdf44b3d8f1b0f158dc295c3a0f8e91015b60405180910390a150505050565b610e2c611eda565b610e34611f24565b5f610e3d611e15565b5f8481526003820160205260409020909150610e598154151590565b610e76576040516309b3c62760e21b815260040160405180910390fd5b6007810154610100900460ff1615610ea157604051633e721c1160e21b815260040160405180910390fd5b600481015415610ec45760405163475a253560e01b815260040160405180910390fd5b825f03610ee35760405162fab39f60e31b815260040160405180910390fd5b81545f90610efd908590600160a01b900461ffff16611f54565b83546040516370a0823160e01b81523060048201529192505f916001600160a01b03909116906370a0823190602401602060405180830381865afa158015610f47573d5f803e3d5ffd5b505050506040513d601f19601f82011682018060405250810190610f6b91906135bb565b8454909150610f85906001600160a01b0316333088611f70565b83546040516370a0823160e01b81523060048201525f9183916001600160a01b03909116906370a0823190602401602060405180830381865afa158015610fce573d5f803e3d5ffd5b505050506040513d601f19601f82011682018060405250810190610ff291906135bb565b610ffc91906135e6565b905085811461101e57604051639bfa3c1760e01b815260040160405180910390fd5b61102883876135e6565b846003015f82825461103a91906135f9565b9250508190555082856002015f82825461105491906135f9565b90915550506040805187815260208101859052339189917fd79700ed206917d87511707d8daa143dd862b6ebe108d45389dc2850ee890753910160405180910390a35050505050610b09611fd7565b5f806110ad611e15565b5f8481526003919091016020526040902090506110ca8154151590565b6110e7576040516309b3c62760e21b815260040160405180910390fd5b611104816110f3611e15565b54600160a01b900461ffff16611ffd565b9392505050565b5f611114611e15565b54600160a01b900461ffff16919050565b5f9081525f805160206136df833981519152602052604090206001015490565b61114d611eda565b611155611f24565b6111618484848461202a565b611169611fd7565b50505050565b61117882611125565b61118181611cf9565b6111698383611e39565b5f611194611e15565b546001600160a01b0316919050565b6001600160a01b03811633146111cc5760405163334bd91960e11b815260040160405180910390fd5b6111d68282612254565b505050565b5f8051602061373f8339815191526111f281611cf9565b6111d66111fe846122cd565b836122f2565b5f8051602061371f83398151915261121b81611cf9565b611223612453565b50565b5f805160206136bf83398151915261123d81611cf9565b610b09826124b2565b5f61124f611e15565b5f938452600401602090815260408085206001600160a01b039490941685529290525090205460ff1690565b5f611284611e15565b6004015f611291856122cd565b815260208082019290925260409081015f9081206001600160a01b038616825290925290205460ff16905092915050565b6112ca6125b8565b6112d382612646565b610b098282612650565b5f6112e6612711565b505f8051602061369f83398151915290565b5f611301611e15565b60020154905090565b611312611eda565b61131a611f24565b61132b611326826122cd565b61275a565b611223611fd7565b5f61133d81611cf9565b6127108261ffff161115611364576040516358d620b360e01b815260040160405180910390fd5b5f61136d611e15565b805461ffff858116600160a01b81810261ffff60a01b198516178555604080519190940490921680835260208301919091529293507f84e4fe32bf74c4011a7e1fde79c63acdffaf92a0112cde153e7b0abee665bc6b9101610e16565b5f805160206136bf8339815191526113e181611cf9565b6111d66113ed846122cd565b836128c8565b6113fb611eda565b611403611f24565b5f61140d826122cd565b90505f611418611e15565b6003015f8381526020019081526020015f20905061143a82825f0154336129c1565b5050611223611fd7565b5f805160206136bf83398151915261145b81611cf9565b610b09611467836122cd565b6124b2565b611474611eda565b61147c611f24565b61132b8161275a565b61148d613166565b611495611e15565b5f928352600390810160209081526040938490208451610120810186528154815260018201549281019290925260028101549482019490945290830154606082015260048301546080820152600583015460a0820152600683015460c082015260079092015460ff808216151560e085015261010091829004161515908301525090565b5f8051602061371f83398151915261153081611cf9565b611223612c6e565b5f611541611e15565b6005015f611291856122cd565b5f9182525f805160206136df833981519152602090815260408084206001600160a01b0393909316845291905290205460ff1690565b5f61158d611e15565b5f938452600501602090815260408085206001600160a01b039490941685529290525090205460ff1690565b6115c1611eda565b6115c9611f24565b5f6115d3866122cd565b90505f6115de611e15565b6003015f8381526020019081526020015f20905061160382825f015488888888612cb6565b505061160d611fd7565b5050505050565b61161c613166565b611624611e15565b6003015f611631846122cd565b815260208082019290925260409081015f20815161012081018352815481526001820154938101939093526002810154918301919091526003810154606083015260048101546080830152600581015460a0830152600681015460c08301526007015460ff808216151560e0840152610100918290041615159082015292915050565b6116bc611eda565b6116c4611f24565b6111616116d0856122cd565b84848461202a565b5f6116e281611cf9565b6116ea611eda565b6001600160a01b0383166117115760405163d92e233d60e01b815260040160405180910390fd5b5f61171a611e15565b9050806002015483111561174157604051638d53e55360e01b815260040160405180910390fd5b82816002015f82825461175491906135e6565b9091555050805461176f906001600160a01b03168585612d8b565b836001600160a01b03167fc0819c13be868895eb93e40eaceb96de976442fa1d404e5c55f14bb65a8c489a846040516117aa91815260200190565b60405180910390a2506111d6611fd7565b5f8051602061373f8339815191526117d281611cf9565b6111d683836122f2565b5f6117e681611cf9565b6117ee611eda565b6001600160a01b0383166118155760405163d92e233d60e01b815260040160405180910390fd5b5f61181e611e15565b5f868152600382016020526040902090915061183a8154151590565b611857576040516309b3c62760e21b815260040160405180910390fd5b600481015415801561187357506007810154610100900460ff16155b1561189157604051630df706ad60e11b815260040160405180910390fd5b6007810154610100900460ff16156118da5762ed4e0081600501546118b691906135f9565b42116118d557604051637e9493f160e01b815260040160405180910390fd5b61190c565b6276a70081600501546118ed91906135f9565b421161190c576040516341524ecf60e11b815260040160405180910390fd5b8154611922906001600160a01b03168686612d8b565b846001600160a01b0316867f81c0812a4be5f6e4a9d832c31f2abeb6dd1f80fab7130ac5ff213907b1768d5b8660405161195e91815260200190565b60405180910390a35050611169611fd7565b5f805160206136bf83398151915261198781611cf9565b6111d683836128c8565b5f61199a611e15565b60010154905090565b5f6119ad81611cf9565b6119b5611eda565b6001600160a01b0383166119dc5760405163d92e233d60e01b815260040160405180910390fd5b5f6119e5611e15565b90505f816003015f6119f6886122cd565b81526020019081526020015f209050611a0f8154151590565b611a2c576040516309b3c62760e21b815260040160405180910390fd5b6004810154158015611a4857506007810154610100900460ff16155b15611a6657604051630df706ad60e11b815260040160405180910390fd5b6007810154610100900460ff1615611aaf5762ed4e008160050154611a8b91906135f9565b4211611aaa57604051637e9493f160e01b815260040160405180910390fd5b611ae1565b6276a7008160050154611ac291906135f9565b4211611ae1576040516341524ecf60e11b815260040160405180910390fd5b8154611af7906001600160a01b03168686612d8b565b846001600160a01b0316611b0a876122cd565b6040518681527f81c0812a4be5f6e4a9d832c31f2abeb6dd1f80fab7130ac5ff213907b1768d5b9060200161195e565b5f805160206136bf833981519152611b5181611cf9565b610b09611b5d836122cd565b611d03565b611b6b82611125565b611b7481611cf9565b6111698383612254565b5f8051602061373f833981519152611b9581611cf9565b5f611b9e611e15565b5f8581526003820160205260409020909150611bba8154151590565b611bd7576040516309b3c62760e21b815260040160405180910390fd5b6007810154610100900460ff1615611c0257604051633e721c1160e21b815260040160405180910390fd5b6004810154611c2457604051630df706ad60e11b815260040160405180910390fd5b600681015415611c475760405163072ea9c560e21b815260040160405180910390fd5b83611c6557604051639dd854d360e01b815260040160405180910390fd5b6004810184905560405184815285907fc338f73db423ff4fcb146028a25d94fd7a52464f4b448ece539ccd1b5cfadd889060200160405180910390a25050505050565b611cb0611eda565b611cb8611f24565b611cc38282336129c1565b610b09611fd7565b611cd3611eda565b611cdb611f24565b611ce9868686868686612cb6565b611cf1611fd7565b505050505050565b6112238133612dbc565b5f611d0c611e15565b5f8381526003820160205260409020909150611d288154151590565b611d45576040516309b3c62760e21b815260040160405180910390fd5b600781015460ff1615611d6b57604051634d65bf2960e11b815260040160405180910390fd5b6007810154610100900460ff1615611d96576040516354e3762560e01b815260040160405180910390fd5b60078101805460ff1916600190811790915582018054905f611db78361360c565b909155505060405183907fc176a6c490c6462479040fd72b0cb790cee29a490e186a88416feb1c873bd3b5905f90a2505050565b611df3612df5565b565b611dfd612df5565b611df3612e3e565b611e0d612df5565b611df3612e5e565b7f1688434071a3d5b4ec14ecf44d71d027d4b262039c9a0234713fe03fb2d8f10090565b5f5f805160206136df833981519152611e52848461154e565b611ed1575f848152602082815260408083206001600160a01b03871684529091529020805460ff19166001179055611e873390565b6001600160a01b0316836001600160a01b0316857f2f8788117e7eff1d82e926ec794901d17c78024a50270940304540a733656f0d60405160405180910390a46001915050610ae3565b5f915050610ae3565b7f9b779b17422d0df92223018b32b4d1fa46e071723d6817e2486d003becc55f00805460011901611f1e57604051633ee5aeb560e01b815260040160405180910390fd5b60029055565b5f805160206136ff8339815191525460ff1615611df35760405163d93c066560e01b815260040160405180910390fd5b5f612710611f6661ffff841685613621565b6111049190613638565b6040516001600160a01b0384811660248301528381166044830152606482018390526111699186918216906323b872dd906084015b604051602081830303815290604052915060e01b6020820180516001600160e01b038381831617835250505050612e66565b60017f9b779b17422d0df92223018b32b4d1fa46e071723d6817e2486d003becc55f0055565b5f8260030154612011846002015484611f54565b846002015461202091906135e6565b61110491906135f9565b5f612033611e15565b5f868152600382016020526040902060048101549192509061206857604051630df706ad60e11b815260040160405180910390fd5b6276a700816005015461207b91906135f9565b42111561209b576040516341524ecf60e11b815260040160405180910390fd5b5f868152600483016020908152604080832033845290915290205460ff166120d65760405163b6966b8b60e01b815260040160405180910390fd5b5f868152600583016020908152604080832033845290915290205460ff161561211257604051630c8d9eab60e31b815260040160405180910390fd5b60408051602081018890523391810191909152606081018690525f9060800160408051601f19818403018152828252805160209182012090830152016040516020818303038152906040528051906020012090506121a68585808060200260200160405190810160405280939291908181526020018383602002808284375f92019190915250505050600484015483612ed2565b6121c3576040516309bde33960e01b815260040160405180910390fd5b5f87815260058401602090815260408083203384529091528120805460ff19166001179055600683018054916121f883613657565b90915550508254612213906001600160a01b03163388612d8b565b604051868152339088907f08456cdc0d48852804bf6fbca83707a5f0c4429827c4d8429549597bd18c6476906020015b60405180910390a350505050505050565b5f5f805160206136df83398151915261226d848461154e565b15611ed1575f848152602082815260408083206001600160a01b0387168085529252808320805460ff1916905551339287917ff6391f5c32d9c69d2a47ea670b442974b53935d1edc7fd64eb21e047a839171b9190a46001915050610ae3565b5f815f036122ee5760405163bb97cc9b60e01b815260040160405180910390fd5b5090565b5f6122fb611e15565b5f84815260038201602052604090209091506123178154151590565b612334576040516309b3c62760e21b815260040160405180910390fd5b6004810154156123575760405163475a253560e01b815260040160405180910390fd5b6007810154610100900460ff161561238257604051633e721c1160e21b815260040160405180910390fd5b826123a057604051639dd854d360e01b815260040160405180910390fd5b60048101839055426005820155600281015482546123c99190600160a01b900461ffff16611f54565b826002015f8282546123db91906135f9565b9091555050600781015460ff166124135760078101805460ff1916600190811790915582018054905f61240d8361360c565b91905055505b837ff777cae170c740b0a4e8fb401e3e2be98004d22fac521391a2bb013e9d2160478460405161244591815260200190565b60405180910390a250505050565b61245b612ee7565b5f805160206136ff833981519152805460ff191681557f5db9ee0a495bf2e6ff9c91a7834c1ba4fdd244a5e8aa4e537bd38aeae4b073aa335b6040516001600160a01b03909116815260200160405180910390a150565b5f6124bb611e15565b5f83815260038201602052604090209091506124d78154151590565b6124f4576040516309b3c62760e21b815260040160405180910390fd5b6004810154156125175760405163475a253560e01b815260040160405180910390fd5b6007810154610100900460ff1615612542576040516354e3762560e01b815260040160405180910390fd5b60078101805461ff001981166101001790915542600583015560ff166125895760078101805460ff1916600190811790915582018054905f6125838361360c565b91905055505b60405183907f730d9f4e127b4c1c5d999194f79025fe149736fbb95b0755b18ed20ddd01b4e0905f90a2505050565b306001600160a01b037f000000000000000000000000000000000000000000000000000000000000000016148061262857507f00000000000000000000000000000000000000000000000000000000000000006001600160a01b031661261c612f16565b6001600160a01b031614155b15611df35760405163703e46dd60e11b815260040160405180910390fd5b5f610b0981611cf9565b816001600160a01b03166352d1902d6040518163ffffffff1660e01b8152600401602060405180830381865afa9250505080156126aa575060408051601f3d908101601f191682019092526126a7918101906135bb565b60015b6126d757604051634c9c8ce360e01b81526001600160a01b03831660048201526024015b60405180910390fd5b5f8051602061369f833981519152811461270757604051632a87526960e21b8152600481018290526024016126ce565b6111d68383612f2a565b306001600160a01b037f00000000000000000000000000000000000000000000000000000000000000001614611df35760405163703e46dd60e11b815260040160405180910390fd5b5f612763611e15565b5f8381526003820160205260409020600781015491925090610100900460ff166127a057604051632069e45f60e11b815260040160405180910390fd5b62ed4e0081600501546127b391906135f9565b4211156127d357604051637e9493f160e01b815260040160405180910390fd5b5f838152600483016020908152604080832033845290915290205460ff1661280e5760405163b6966b8b60e01b815260040160405180910390fd5b5f838152600583016020908152604080832033845290915290205460ff161561284a5760405163542f378d60e11b815260040160405180910390fd5b5f8381526005830160209081526040808320338085529252909120805460ff191660011790558154835461288a926001600160a01b039190911691612d8b565b8054604051908152339084907fe950d47bcc1a745a8ef1d8b86486b400a99681910425d126eb1a006d61f341b29060200160405180910390a3505050565b816128e65760405163bb97cc9b60e01b815260040160405180910390fd5b805f0361290657604051636fe6a4c960e01b815260040160405180910390fd5b6b033b2e3c9fd0803ce800000081111561293357604051631a3dc29960e21b815260040160405180910390fd5b5f61293c611e15565b5f84815260038201602052604090209091506129588154151590565b156129765760405163332e591360e21b815260040160405180910390fd5b828155600182018054905f61298a83613657565b9190505550837f679159d61874cc548c1d06adf24fa72f29a2bc9b8524dc7fcce81ea74307c2588460405161244591815260200190565b5f6129ca611e15565b5f85815260038201602052604090209091506129e68154151590565b612a03576040516309b3c62760e21b815260040160405180910390fd5b600781015460ff1615612a2957604051630766422f60e31b815260040160405180910390fd5b6007810154610100900460ff1615612a5457604051633e721c1160e21b815260040160405180910390fd5b5f85815260048301602090815260408083206001600160a01b038716845290915290205460ff1615612a995760405163d7d33eb960e01b815260040160405180910390fd5b80548414612ab95760405162fab39f60e31b815260040160405180910390fd5b5f85815260048301602090815260408083206001600160a01b03871684529091528120805460ff191660019081179091558201805491612af883613657565b909155505081546040516370a0823160e01b81523060048201525f916001600160a01b0316906370a0823190602401602060405180830381865afa158015612b42573d5f803e3d5ffd5b505050506040513d601f19601f82011682018060405250810190612b6691906135bb565b8354909150612b80906001600160a01b0316853088611f70565b82546040516370a0823160e01b81523060048201525f9183916001600160a01b03909116906370a0823190602401602060405180830381865afa158015612bc9573d5f803e3d5ffd5b505050506040513d601f19601f82011682018060405250810190612bed91906135bb565b612bf791906135e6565b9050858114612c1957604051639bfa3c1760e01b815260040160405180910390fd5b85836002015f828254612c2c91906135f9565b90915550506040518681526001600160a01b0386169088907fb3499ce0cbe9a7cd881eb0b7039a7d92167c81fa926e06e08fa362056e570fa390602001612243565b612c76611f24565b5f805160206136ff833981519152805460ff191660011781557f62e78cea01bee320cd4e420270b5ea74000d11b0c9f74754ebdbfc544b05a25833612494565b5f612cbf611e15565b5f8881526003820160205260409020909150612cdb8154151590565b612cf8576040516309b3c62760e21b815260040160405180910390fd5b815460405163d505accf60e01b8152336004820152306024820152604481018990526064810188905260ff8716608482015260a4810186905260c481018590526001600160a01b039091169063d505accf9060e4015f604051808303815f87803b158015612d64575f80fd5b505af1925050508015612d75575060015b50612d818888336129c1565b5050505050505050565b6040516001600160a01b038381166024830152604482018390526111d691859182169063a9059cbb90606401611fa5565b612dc6828261154e565b610b095760405163e2517d3f60e01b81526001600160a01b0382166004820152602481018390526044016126ce565b7ff0c57e16840df040f15088dc2f81fe391c3923bec73e23a9662efc9c229c6a0054600160401b900460ff16611df357604051631afcd79f60e31b815260040160405180910390fd5b612e46612df5565b5f805160206136ff833981519152805460ff19169055565b611fd7612df5565b5f8060205f8451602086015f885af180612e85576040513d5f823e3d81fd5b50505f513d91508115612e9c578060011415612ea9565b6001600160a01b0384163b155b1561116957604051635274afe760e01b81526001600160a01b03851660048201526024016126ce565b5f82612ede8584612f7f565b14949350505050565b5f805160206136ff8339815191525460ff16611df357604051638dfc202b60e01b815260040160405180910390fd5b5f5f8051602061369f833981519152611194565b612f3382612fc1565b6040516001600160a01b038316907fbc7cd75a20ee27fd9adebab32041f755214dbc6bffa90cc0225b39da2e5c2d3b905f90a2805115612f77576111d68282613024565b610b09613096565b5f81815b8451811015612fb957612faf82868381518110612fa257612fa261366f565b60200260200101516130b5565b9150600101612f83565b509392505050565b806001600160a01b03163b5f03612ff657604051634c9c8ce360e01b81526001600160a01b03821660048201526024016126ce565b5f8051602061369f83398151915280546001600160a01b0319166001600160a01b0392909216919091179055565b60605f80846001600160a01b0316846040516130409190613683565b5f60405180830381855af49150503d805f8114613078576040519150601f19603f3d011682016040523d82523d5f602084013e61307d565b606091505b509150915061308d8583836130e1565b95945050505050565b3415611df35760405163b398979f60e01b815260040160405180910390fd5b5f8183106130cf575f828152602084905260409020611104565b5f838152602083905260409020611104565b6060826130f6576130f18261313d565b611104565b815115801561310d57506001600160a01b0384163b155b1561313657604051639996b31560e01b81526001600160a01b03851660048201526024016126ce565b5080611104565b80511561314d5780518082602001fd5b60405163d6bda27560e01b815260040160405180910390fd5b6040518061012001604052805f81526020015f81526020015f81526020015f81526020015f80191681526020015f81526020015f81526020015f151581526020015f151581525090565b5f602082840312156131c0575f80fd5b81356001600160e01b031981168114611104575f80fd5b5f602082840312156131e7575f80fd5b5035919050565b80356001600160a01b0381168114613204575f80fd5b919050565b803561ffff81168114613204575f80fd5b5f805f805f8060c0878903121561322f575f80fd5b613238876131ee565b9550613246602088016131ee565b9450613254604088016131ee565b9350613262606088016131ee565b9250613270608088016131ee565b915061327e60a08801613209565b90509295509295509295565b5f6020828403121561329a575f80fd5b611104826131ee565b5f80604083850312156132b4575f80fd5b50508035926020909101359150565b5f8083601f8401126132d3575f80fd5b50813567ffffffffffffffff8111156132ea575f80fd5b6020830191508360208260051b8501011115613304575f80fd5b9250929050565b5f805f806060858703121561331e575f80fd5b8435935060208501359250604085013567ffffffffffffffff811115613342575f80fd5b61334e878288016132c3565b95989497509550505050565b5f806040838503121561336b575f80fd5b8235915061337b602084016131ee565b90509250929050565b634e487b7160e01b5f52604160045260245ffd5b5f80604083850312156133a9575f80fd5b6133b2836131ee565b9150602083013567ffffffffffffffff808211156133ce575f80fd5b818501915085601f8301126133e1575f80fd5b8135818111156133f3576133f3613384565b604051601f8201601f19908116603f0116810190838211818310171561341b5761341b613384565b81604052828152886020848701011115613433575f80fd5b826020860160208301375f6020848301015280955050505050509250929050565b5f60208284031215613464575f80fd5b61110482613209565b803560ff81168114613204575f80fd5b5f805f805f60a08688031215613491575f80fd5b85359450602086013593506134a86040870161346d565b94979396509394606081013594506080013592915050565b5f80604083850312156134d1575f80fd5b6134da836131ee565b946020939093013593505050565b5f5b838110156135025781810151838201526020016134ea565b50505f910152565b602081525f82518060208401526135288160408501602087016134e8565b601f01601f19169190910160400192915050565b5f805f6060848603121561354e575f80fd5b8335925061355e602085016131ee565b9150604084013590509250925092565b5f805f805f8060c08789031215613583575f80fd5b8635955060208701359450604087013593506135a16060880161346d565b92506080870135915060a087013590509295509295509295565b5f602082840312156135cb575f80fd5b5051919050565b634e487b7160e01b5f52601160045260245ffd5b81810381811115610ae357610ae36135d2565b80820180821115610ae357610ae36135d2565b5f8161361a5761361a6135d2565b505f190190565b8082028115828204841417610ae357610ae36135d2565b5f8261365257634e487b7160e01b5f52601260045260245ffd5b500490565b5f60018201613668576136686135d2565b5060010190565b634e487b7160e01b5f52603260045260245ffd5b5f82516136948184602087016134e8565b919091019291505056fe360894a13ba1a3210667c828492db98dca3e2076cc3735a920a3ca505d382bbc97667070c54ef182b0f5858b034beac1b6f3089aa2d3188bb1e8929f4fa9b92902dd7bc7dec4dceedda775e58dd541e08a116c6c53815c0bd028192f7b626800cd5ed15c6e187e77e9aee88184c21f4f2182ab5827cb3b7e07fbedcd63f0330055435dd261a4b9b3364963f7738a7a662ad9c84396d64be3365284bb7f0a50416666bf5bfee463d10a7fc50448047f8a53b7762d7e28fbc5c643182785f3fd3fa26469706673582212201034e9ba979c9121da7649ab156507e7b6399191eeecfc3a4e4acaf93f36706164736f6c63430008180033","linkReferences":{}},"methodIdentifiers":{"ADMIN_ROLE()":"75b238fc","CLAIM_EXPIRY()":"49d57874","DEFAULT_ADMIN_ROLE()":"a217fddf","GUARDIAN_ROLE()":"24ea54f4","MAX_ENTRY_FEE()":"f50ab0de","OPERATOR_ROLE()":"f5b541a6","PAUSER_ROLE()":"e63ab1e9","REFUND_EXPIRY()":"eab1e359","SETTLER_ROLE()":"7445e85c","UPGRADE_INTERFACE_VERSION()":"ad3cb1cc","VERSION()":"ffa1ad74","accumulatedFees()":"587f5ed7","activeGameCount()":"c87f6ff7","buyTicket(bytes32,uint256)":"e295fa7f","buyTicket(uint256)":"67dd74ca","buyTicketWithPermit(bytes32,uint256,uint256,uint8,bytes32,bytes32)":"e2a0351c","buyTicketWithPermit(uint256,uint256,uint8,bytes32,bytes32)":"9d987b3a","cancelGame(bytes32)":"3f7121b0","cancelGame(uint256)":"69958ab9","claimPrize(bytes32,uint256,bytes32[])":"28ff8569","claimPrize(uint256,uint256,bytes32[])":"a6de74e8","claimRefund(bytes32)":"71de2ffc","claimRefund(uint256)":"5b7baf64","closeSales(bytes32)":"0a42a3cb","correctResultsRoot(bytes32,bytes32)":"e281d109","createGame(bytes32,uint256)":"c0b9c53c","createGame(uint256,uint256)":"60104cef","endGame(uint256)":"d0399bb8","getGame(bytes32)":"73931bbf","getGame(uint256)":"a2f77bcc","getRoleAdmin(bytes32)":"248a9ca3","getTotalPrizePool(bytes32)":"221719ad","grantRole(bytes32,address)":"2f2ff15d","hasClaimed(bytes32,address)":"92a42d1d","hasClaimed(uint256,address)":"873f6f9e","hasRole(bytes32,address)":"91d14854","hasTicket(bytes32,address)":"40ec5c5d","hasTicket(uint256,address)":"4843d2b1","initialize(address,address,address,address,address,uint16)":"125c42f6","pause()":"8456cb59","paused()":"5c975abb","paymentToken()":"3013ce29","platformFeeBps()":"22dcd13e","platformFeePermyriad()":"83ae35dd","proxiableUUID()":"52d1902d","renounceRole(bytes32,address)":"36568abe","revokeRole(bytes32,address)":"d547741f","setPaymentToken(address)":"6a326ab1","setPlatformFee(uint16)":"5cbc742c","setToken(address)":"144fa6d7","sponsorPrizePool(bytes32,uint256)":"1761ab22","submitResults(bytes32,bytes32)":"ad9791a5","submitResults(uint256,bytes32)":"3e8297d1","supportsInterface(bytes4)":"01ffc9a7","sweepExpiredGame(uint256,address,uint256)":"cb0e43b8","sweepUnclaimedFunds(bytes32,address,uint256)":"b42cf061","token()":"fc0c546a","unpause()":"3f4ba83a","upgradeToAndCall(address,bytes)":"4f1ef286","withdrawFees(address,uint256)":"ad3b1b47"},"id":45}